{
  "_format": "hh-sol-artifact-1",
  "contractName": "TossACoin",
  "sourceName": "contracts/TossACoin.sol",
  "abi": [
    {
      "inputs": [],
      "stateMutability": "nonpayable",
      "type": "constructor"
    },
    {
      "anonymous": false,
      "inputs": [
        {
          "indexed": true,
          "internalType": "address",
          "name": "previousOwner",
          "type": "address"
        },
        {
          "indexed": true,
          "internalType": "address",
          "name": "newOwner",
          "type": "address"
        }
      ],
      "name": "OwnershipTransferred",
      "type": "event"
    },
    {
      "anonymous": false,
      "inputs": [
        {
          "indexed": false,
          "internalType": "uint256",
          "name": "amount",
          "type": "uint256"
        }
      ],
      "name": "Tossed",
      "type": "event"
    },
    {
      "anonymous": false,
      "inputs": [
        {
          "indexed": false,
          "internalType": "uint256",
          "name": "amount",
          "type": "uint256"
        }
      ],
      "name": "Withdrawal",
      "type": "event"
    },
    {
      "inputs": [],
      "name": "owner",
      "outputs": [
        {
          "internalType": "address",
          "name": "",
          "type": "address"
        }
      ],
      "stateMutability": "view",
      "type": "function"
    },
    {
      "inputs": [],
      "name": "renounceOwnership",
      "outputs": [],
      "stateMutability": "nonpayable",
      "type": "function"
    },
    {
      "inputs": [],
      "name": "toss",
      "outputs": [],
      "stateMutability": "payable",
      "type": "function"
    },
    {
      "inputs": [
        {
          "internalType": "address",
          "name": "",
          "type": "address"
        }
      ],
      "name": "tossed",
      "outputs": [
        {
          "internalType": "uint256",
          "name": "",
          "type": "uint256"
        }
      ],
      "stateMutability": "view",
      "type": "function"
    },
    {
      "inputs": [],
      "name": "totalReceived",
      "outputs": [
        {
          "internalType": "uint256",
          "name": "",
          "type": "uint256"
        }
      ],
      "stateMutability": "view",
      "type": "function"
    },
    {
      "inputs": [
        {
          "internalType": "address",
          "name": "newOwner",
          "type": "address"
        }
      ],
      "name": "transferOwnership",
      "outputs": [],
      "stateMutability": "nonpayable",
      "type": "function"
    },
    {
      "inputs": [],
      "name": "withdraw",
      "outputs": [],
      "stateMutability": "nonpayable",
      "type": "function"
    },
    {
      "stateMutability": "payable",
      "type": "receive"
    }
  ],
  "bytecode": "0x608060405234801561001057600080fd5b5061002d61002261003260201b60201c565b61003a60201b60201c565b6100fe565b600033905090565b60008060009054906101000a900473ffffffffffffffffffffffffffffffffffffffff169050816000806101000a81548173ffffffffffffffffffffffffffffffffffffffff021916908373ffffffffffffffffffffffffffffffffffffffff1602179055508173ffffffffffffffffffffffffffffffffffffffff168173ffffffffffffffffffffffffffffffffffffffff167f8be0079c531659141344cd1fd0a4f28419497f9722a3daafe3b4186f6b6457e060405160405180910390a35050565b6109e08061010d6000396000f3fe6080604052600436106100745760003560e01c8063715018a61161004e578063715018a6146100e65780638da5cb5b146100fd578063a3c2c46214610128578063f2fde38b1461015357610083565b80633ccfd60b14610088578063466adcdb1461009f5780634771c626146100dc57610083565b366100835761008161017c565b005b600080fd5b34801561009457600080fd5b5061009d610267565b005b3480156100ab57600080fd5b506100c660048036038101906100c19190610623565b610398565b6040516100d39190610669565b60405180910390f35b6100e461017c565b005b3480156100f257600080fd5b506100fb6103b0565b005b34801561010957600080fd5b506101126103c4565b60405161011f9190610693565b60405180910390f35b34801561013457600080fd5b5061013d6103ed565b60405161014a9190610669565b60405180910390f35b34801561015f57600080fd5b5061017a60048036038101906101759190610623565b6103f3565b005b600034116101bf576040517f08c379a00000000000000000000000000000000000000000000000000000000081526004016101b69061070b565b60405180910390fd5b34600160003373ffffffffffffffffffffffffffffffffffffffff1673ffffffffffffffffffffffffffffffffffffffff168152602001908152602001600020600082825461020e919061075a565b925050819055503460026000828254610227919061075a565b925050819055507f4faa6db1a774ae6a07f40c705418a030e1641ac58f5f62dfd345d05c0ba7e75c3460405161025d9190610669565b60405180910390a1565b61026f610476565b600047116102b2576040517f08c379a00000000000000000000000000000000000000000000000000000000081526004016102a9906107da565b60405180910390fd5b60003373ffffffffffffffffffffffffffffffffffffffff16476040516102d89061082b565b60006040518083038185875af1925050503d8060008114610315576040519150601f19603f3d011682016040523d82523d6000602084013e61031a565b606091505b505090508061035e576040517f08c379a00000000000000000000000000000000000000000000000000000000081526004016103559061088c565b60405180910390fd5b7f4e70a604b23a8edee2b1d0a656e9b9c00b73ad8bb1afc2c59381ee9f69197de74760405161038d9190610669565b60405180910390a150565b60016020528060005260406000206000915090505481565b6103b8610476565b6103c260006104f4565b565b60008060009054906101000a900473ffffffffffffffffffffffffffffffffffffffff16905090565b60025481565b6103fb610476565b600073ffffffffffffffffffffffffffffffffffffffff168173ffffffffffffffffffffffffffffffffffffffff160361046a576040517f08c379a00000000000000000000000000000000000000000000000000000000081526004016104619061091e565b60405180910390fd5b610473816104f4565b50565b61047e6105b8565b73ffffffffffffffffffffffffffffffffffffffff1661049c6103c4565b73ffffffffffffffffffffffffffffffffffffffff16146104f2576040517f08c379a00000000000000000000000000000000000000000000000000000000081526004016104e99061098a565b60405180910390fd5b565b60008060009054906101000a900473ffffffffffffffffffffffffffffffffffffffff169050816000806101000a81548173ffffffffffffffffffffffffffffffffffffffff021916908373ffffffffffffffffffffffffffffffffffffffff1602179055508173ffffffffffffffffffffffffffffffffffffffff168173ffffffffffffffffffffffffffffffffffffffff167f8be0079c531659141344cd1fd0a4f28419497f9722a3daafe3b4186f6b6457e060405160405180910390a35050565b600033905090565b600080fd5b600073ffffffffffffffffffffffffffffffffffffffff82169050919050565b60006105f0826105c5565b9050919050565b610600816105e5565b811461060b57600080fd5b50565b60008135905061061d816105f7565b92915050565b600060208284031215610639576106386105c0565b5b60006106478482850161060e565b91505092915050565b6000819050919050565b61066381610650565b82525050565b600060208201905061067e600083018461065a565b92915050565b61068d816105e5565b82525050565b60006020820190506106a86000830184610684565b92915050565b600082825260208201905092915050565b7f6e6f7468696e672077617320746f7373203a2800000000000000000000000000600082015250565b60006106f56013836106ae565b9150610700826106bf565b602082019050919050565b60006020820190508181036000830152610724816106e8565b9050919050565b7f4e487b7100000000000000000000000000000000000000000000000000000000600052601160045260246000fd5b600061076582610650565b915061077083610650565b92508282019050808211156107885761078761072b565b5b92915050565b7f62616c616e636520656d70747900000000000000000000000000000000000000600082015250565b60006107c4600d836106ae565b91506107cf8261078e565b602082019050919050565b600060208201905081810360008301526107f3816107b7565b9050919050565b600081905092915050565b50565b60006108156000836107fa565b915061082082610805565b600082019050919050565b600061083682610808565b9150819050919050565b7f7472616e73666572206661696c65640000000000000000000000000000000000600082015250565b6000610876600f836106ae565b915061088182610840565b602082019050919050565b600060208201905081810360008301526108a581610869565b9050919050565b7f4f776e61626c653a206e6577206f776e657220697320746865207a65726f206160008201527f6464726573730000000000000000000000000000000000000000000000000000602082015250565b60006109086026836106ae565b9150610913826108ac565b604082019050919050565b60006020820190508181036000830152610937816108fb565b9050919050565b7f4f776e61626c653a2063616c6c6572206973206e6f7420746865206f776e6572600082015250565b60006109746020836106ae565b915061097f8261093e565b602082019050919050565b600060208201905081810360008301526109a381610967565b905091905056fea2646970667358221220da3fb988e469e8296b431862c621d8b7c512ca2a36ef91c3c092b163b6781a9e64736f6c63430008130033",
  "linkReferences": {},
  "deployedLinkReferences": {}
}